{
  "_format": "hh-sol-artifact-1",
  "contractName": "CrowdFunding",
  "sourceName": "contracts/Crowdfunding.sol",
  "abi": [
    {
      "inputs": [],
      "stateMutability": "nonpayable",
      "type": "constructor"
    },
    {
      "anonymous": false,
      "inputs": [
        {
          "indexed": false,
          "internalType": "uint256",
          "name": "campaignId",
          "type": "uint256"
        },
        {
          "indexed": false,
          "internalType": "string",
          "name": "title",
          "type": "string"
        },
        {
          "indexed": false,
          "internalType": "string",
          "name": "description",
          "type": "string"
        },
        {
          "indexed": false,
          "internalType": "address",
          "name": "benefactor",
          "type": "address"
        },
        {
          "indexed": false,
          "internalType": "uint256",
          "name": "goal",
          "type": "uint256"
        },
        {
          "indexed": false,
          "internalType": "uint256",
          "name": "deadline",
          "type": "uint256"
        }
      ],
      "name": "CampaignCreated",
      "type": "event"
    },
    {
      "anonymous": false,
      "inputs": [
        {
          "indexed": false,
          "internalType": "uint256",
          "name": "campaignId",
          "type": "uint256"
        },
        {
          "indexed": false,
          "internalType": "uint256",
          "name": "amountRaised",
          "type": "uint256"
        },
        {
          "indexed": false,
          "internalType": "address",
          "name": "benefactor",
          "type": "address"
        }
      ],
      "name": "CampaignEnded",
      "type": "event"
    },
    {
      "anonymous": false,
      "inputs": [
        {
          "indexed": false,
          "internalType": "uint256",
          "name": "campaignId",
          "type": "uint256"
        },
        {
          "indexed": false,
          "internalType": "address",
          "name": "donor",
          "type": "address"
        },
        {
          "indexed": false,
          "internalType": "uint256",
          "name": "amount",
          "type": "uint256"
        }
      ],
      "name": "DonationReceived",
      "type": "event"
    },
    {
      "inputs": [],
      "name": "campaignCount",
      "outputs": [
        {
          "internalType": "uint256",
          "name": "",
          "type": "uint256"
        }
      ],
      "stateMutability": "view",
      "type": "function"
    },
    {
      "inputs": [
        {
          "internalType": "uint256",
          "name": "",
          "type": "uint256"
        }
      ],
      "name": "campaigns",
      "outputs": [
        {
          "internalType": "string",
          "name": "title",
          "type": "string"
        },
        {
          "internalType": "string",
          "name": "description",
          "type": "string"
        },
        {
          "internalType": "address",
          "name": "benefactor",
          "type": "address"
        },
        {
          "internalType": "uint256",
          "name": "goal",
          "type": "uint256"
        },
        {
          "internalType": "uint256",
          "name": "deadline",
          "type": "uint256"
        },
        {
          "internalType": "uint256",
          "name": "amountRaised",
          "type": "uint256"
        },
        {
          "internalType": "bool",
          "name": "ended",
          "type": "bool"
        }
      ],
      "stateMutability": "view",
      "type": "function"
    },
    {
      "inputs": [
        {
          "internalType": "string",
          "name": "_title",
          "type": "string"
        },
        {
          "internalType": "uint256",
          "name": "_goal",
          "type": "uint256"
        },
        {
          "internalType": "string",
          "name": "_description",
          "type": "string"
        },
        {
          "internalType": "address",
          "name": "_benefactor",
          "type": "address"
        },
        {
          "internalType": "uint256",
          "name": "_duration",
          "type": "uint256"
        }
      ],
      "name": "createCampaign",
      "outputs": [],
      "stateMutability": "nonpayable",
      "type": "function"
    },
    {
      "inputs": [
        {
          "internalType": "uint256",
          "name": "_campaignId",
          "type": "uint256"
        }
      ],
      "name": "donate",
      "outputs": [],
      "stateMutability": "payable",
      "type": "function"
    },
    {
      "inputs": [
        {
          "internalType": "uint256",
          "name": "_campaignId",
          "type": "uint256"
        }
      ],
      "name": "endCampaign",
      "outputs": [],
      "stateMutability": "nonpayable",
      "type": "function"
    },
    {
      "inputs": [],
      "name": "owner",
      "outputs": [
        {
          "internalType": "address",
          "name": "",
          "type": "address"
        }
      ],
      "stateMutability": "view",
      "type": "function"
    },
    {
      "inputs": [],
      "name": "withdrawFunds",
      "outputs": [],
      "stateMutability": "nonpayable",
      "type": "function"
    },
    {
      "stateMutability": "payable",
      "type": "receive"
    }
  ],
  "bytecode": "0x608060405234801561001057600080fd5b50336000806101000a81548173ffffffffffffffffffffffffffffffffffffffff021916908373ffffffffffffffffffffffffffffffffffffffff160217905550611735806100606000396000f3fe6080604052600436106100745760003560e01c80637274e30d1161004e5780637274e30d146101035780638da5cb5b1461012e578063dd0408ae14610159578063f14faf6f146101825761007b565b8063141961bc146100805780631a30efee146100c357806324600fc3146100ec5761007b565b3661007b57005b600080fd5b34801561008c57600080fd5b506100a760048036038101906100a29190610ab8565b61019e565b6040516100ba9796959493929190610be0565b60405180910390f35b3480156100cf57600080fd5b506100ea60048036038101906100e59190610dbe565b61031d565b005b3480156100f857600080fd5b50610101610558565b005b34801561010f57600080fd5b5061011861064f565b6040516101259190610e71565b60405180910390f35b34801561013a57600080fd5b50610143610655565b6040516101509190610e8c565b60405180910390f35b34801561016557600080fd5b50610180600480360381019061017b9190610ab8565b610679565b005b61019c60048036038101906101979190610ab8565b6108c8565b005b60026020528060005260406000206000915090508060000180546101c190610ed6565b80601f01602080910402602001604051908101604052809291908181526020018280546101ed90610ed6565b801561023a5780601f1061020f5761010080835404028352916020019161023a565b820191906000526020600020905b81548152906001019060200180831161021d57829003601f168201915b50505050509080600101805461024f90610ed6565b80601f016020809104026020016040519081016040528092919081815260200182805461027b90610ed6565b80156102c85780601f1061029d576101008083540402835291602001916102c8565b820191906000526020600020905b8154815290600101906020018083116102ab57829003601f168201915b5050505050908060020160009054906101000a900473ffffffffffffffffffffffffffffffffffffffff16908060030154908060040154908060050154908060060160009054906101000a900460ff16905087565b60008411610360576040517f08c379a000000000000000000000000000000000000000000000000000000000815260040161035790610f53565b60405180910390fd5b600073ffffffffffffffffffffffffffffffffffffffff168273ffffffffffffffffffffffffffffffffffffffff16036103cf576040517f08c379a00000000000000000000000000000000000000000000000000000000081526004016103c690610fbf565b60405180910390fd5b600081426103dd919061100e565b90506040518060e001604052808781526020018581526020018473ffffffffffffffffffffffffffffffffffffffff1681526020018681526020018281526020016000815260200160001515815250600260006001548152602001908152602001600020600082015181600001908161045691906111ee565b50602082015181600101908161046c91906111ee565b5060408201518160020160006101000a81548173ffffffffffffffffffffffffffffffffffffffff021916908373ffffffffffffffffffffffffffffffffffffffff160217905550606082015181600301556080820151816004015560a0820151816005015560c08201518160060160006101000a81548160ff0219169083151502179055509050507f6dc009727ade93d61407adc1ed4b52cfc025b0c4cb8cd23577ea2d402c4838cd6001548786868986604051610530969594939291906112c0565b60405180910390a16001600081548092919061054b9061132f565b9190505550505050505050565b60008054906101000a900473ffffffffffffffffffffffffffffffffffffffff1673ffffffffffffffffffffffffffffffffffffffff163373ffffffffffffffffffffffffffffffffffffffff16146105e6576040517f08c379a00000000000000000000000000000000000000000000000000000000081526004016105dd906113c3565b60405180910390fd5b60008054906101000a900473ffffffffffffffffffffffffffffffffffffffff1673ffffffffffffffffffffffffffffffffffffffff166108fc479081150290604051600060405180830381858888f1935050505015801561064c573d6000803e3d6000fd5b50565b60015481565b60008054906101000a900473ffffffffffffffffffffffffffffffffffffffff1681565b8060015481106106be576040517f08c379a00000000000000000000000000000000000000000000000000000000081526004016106b59061142f565b60405180910390fd5b816002600082815260200190815260200160002060060160009054906101000a900460ff1615610723576040517f08c379a000000000000000000000000000000000000000000000000000000000815260040161071a9061149b565b60405180910390fd5b60006002600085815260200190815260200160002090508060040154421015610781576040517f08c379a000000000000000000000000000000000000000000000000000000000815260040161077890611507565b60405180910390fd5b8060060160009054906101000a900460ff16156107d3576040517f08c379a00000000000000000000000000000000000000000000000000000000081526004016107ca90611573565b60405180910390fd5b60018160060160006101000a81548160ff0219169083151502179055508060020160009054906101000a900473ffffffffffffffffffffffffffffffffffffffff1673ffffffffffffffffffffffffffffffffffffffff166108fc82600501549081150290604051600060405180830381858888f1935050505015801561085e573d6000803e3d6000fd5b507f57eaa6f2e5d5b59a37673af7f9e5588e06fe8282edb875db1598f59ef55195d68482600501548360020160009054906101000a900473ffffffffffffffffffffffffffffffffffffffff166040516108ba93929190611593565b60405180910390a150505050565b80600154811061090d576040517f08c379a00000000000000000000000000000000000000000000000000000000081526004016109049061142f565b60405180910390fd5b816002600082815260200190815260200160002060060160009054906101000a900460ff1615610972576040517f08c379a00000000000000000000000000000000000000000000000000000000081526004016109699061149b565b60405180910390fd5b6000600260008581526020019081526020016000209050600034116109cc576040517f08c379a00000000000000000000000000000000000000000000000000000000081526004016109c39061163c565b60405180910390fd5b80600401544210610a12576040517f08c379a0000000000000000000000000000000000000000000000000000000008152600401610a09906116a8565b60405180910390fd5b34816005016000828254610a26919061100e565b925050819055507f0b5b4c52969ff7329ecf7ee536409fda87812b15a8622bc6e8cdeab3aee14a26843334604051610a60939291906116c8565b60405180910390a150505050565b6000604051905090565b600080fd5b600080fd5b6000819050919050565b610a9581610a82565b8114610aa057600080fd5b50565b600081359050610ab281610a8c565b92915050565b600060208284031215610ace57610acd610a78565b5b6000610adc84828501610aa3565b91505092915050565b600081519050919050565b600082825260208201905092915050565b60005b83811015610b1f578082015181840152602081019050610b04565b60008484015250505050565b6000601f19601f8301169050919050565b6000610b4782610ae5565b610b518185610af0565b9350610b61818560208601610b01565b610b6a81610b2b565b840191505092915050565b600073ffffffffffffffffffffffffffffffffffffffff82169050919050565b6000610ba082610b75565b9050919050565b610bb081610b95565b82525050565b610bbf81610a82565b82525050565b60008115159050919050565b610bda81610bc5565b82525050565b600060e0820190508181036000830152610bfa818a610b3c565b90508181036020830152610c0e8189610b3c565b9050610c1d6040830188610ba7565b610c2a6060830187610bb6565b610c376080830186610bb6565b610c4460a0830185610bb6565b610c5160c0830184610bd1565b98975050505050505050565b600080fd5b600080fd5b7f4e487b7100000000000000000000000000000000000000000000000000000000600052604160045260246000fd5b610c9f82610b2b565b810181811067ffffffffffffffff82111715610cbe57610cbd610c67565b5b80604052505050565b6000610cd1610a6e565b9050610cdd8282610c96565b919050565b600067ffffffffffffffff821115610cfd57610cfc610c67565b5b610d0682610b2b565b9050602081019050919050565b82818337600083830152505050565b6000610d35610d3084610ce2565b610cc7565b905082815260208101848484011115610d5157610d50610c62565b5b610d5c848285610d13565b509392505050565b600082601f830112610d7957610d78610c5d565b5b8135610d89848260208601610d22565b91505092915050565b610d9b81610b95565b8114610da657600080fd5b50565b600081359050610db881610d92565b92915050565b600080600080600060a08688031215610dda57610dd9610a78565b5b600086013567ffffffffffffffff811115610df857610df7610a7d565b5b610e0488828901610d64565b9550506020610e1588828901610aa3565b945050604086013567ffffffffffffffff811115610e3657610e35610a7d565b5b610e4288828901610d64565b9350506060610e5388828901610da9565b9250506080610e6488828901610aa3565b9150509295509295909350565b6000602082019050610e866000830184610bb6565b92915050565b6000602082019050610ea16000830184610ba7565b92915050565b7f4e487b7100000000000000000000000000000000000000000000000000000000600052602260045260246000fd5b60006002820490506001821680610eee57607f821691505b602082108103610f0157610f00610ea7565b5b50919050565b7f476f616c206d7573742062652067726561746572207468616e207a65726f0000600082015250565b6000610f3d601e83610af0565b9150610f4882610f07565b602082019050919050565b60006020820190508181036000830152610f6c81610f30565b9050919050565b7f496e76616c69642062656e65666163746f722061646472657373000000000000600082015250565b6000610fa9601a83610af0565b9150610fb482610f73565b602082019050919050565b60006020820190508181036000830152610fd881610f9c565b9050919050565b7f4e487b7100000000000000000000000000000000000000000000000000000000600052601160045260246000fd5b600061101982610a82565b915061102483610a82565b925082820190508082111561103c5761103b610fdf565b5b92915050565b60008190508160005260206000209050919050565b60006020601f8301049050919050565b600082821b905092915050565b6000600883026110a47fffffffffffffffffffffffffffffffffffffffffffffffffffffffffffffffff82611067565b6110ae8683611067565b95508019841693508086168417925050509392505050565b6000819050919050565b60006110eb6110e66110e184610a82565b6110c6565b610a82565b9050919050565b6000819050919050565b611105836110d0565b611119611111826110f2565b848454611074565b825550505050565b600090565b61112e611121565b6111398184846110fc565b505050565b5b8181101561115d57611152600082611126565b60018101905061113f565b5050565b601f8211156111a25761117381611042565b61117c84611057565b8101602085101561118b578190505b61119f61119785611057565b83018261113e565b50505b505050565b600082821c905092915050565b60006111c5600019846008026111a7565b1980831691505092915050565b60006111de83836111b4565b9150826002028217905092915050565b6111f782610ae5565b67ffffffffffffffff8111156112105761120f610c67565b5b61121a8254610ed6565b611225828285611161565b600060209050601f8311600181146112585760008415611246578287015190505b61125085826111d2565b8655506112b8565b601f19841661126686611042565b60005b8281101561128e57848901518255600182019150602085019450602081019050611269565b868310156112ab57848901516112a7601f8916826111b4565b8355505b6001600288020188555050505b505050505050565b600060c0820190506112d56000830189610bb6565b81810360208301526112e78188610b3c565b905081810360408301526112fb8187610b3c565b905061130a6060830186610ba7565b6113176080830185610bb6565b61132460a0830184610bb6565b979650505050505050565b600061133a82610a82565b91507fffffffffffffffffffffffffffffffffffffffffffffffffffffffffffffffff820361136c5761136b610fdf565b5b600182019050919050565b7f4e6f742074686520636f6e7472616374206f776e657200000000000000000000600082015250565b60006113ad601683610af0565b91506113b882611377565b602082019050919050565b600060208201905081810360008301526113dc816113a0565b9050919050565b7f43616d706169676e20646f6573206e6f74206578697374000000000000000000600082015250565b6000611419601783610af0565b9150611424826113e3565b602082019050919050565b600060208201905081810360008301526114488161140c565b9050919050565b7f43616d706169676e2068617320656e6465640000000000000000000000000000600082015250565b6000611485601283610af0565b91506114908261144f565b602082019050919050565b600060208201905081810360008301526114b481611478565b9050919050565b7f43616d706169676e20686173206e6f7420656e64656420796574000000000000600082015250565b60006114f1601a83610af0565b91506114fc826114bb565b602082019050919050565b60006020820190508181036000830152611520816114e4565b9050919050565b7f43616d706169676e20616c726561647920656e64656400000000000000000000600082015250565b600061155d601683610af0565b915061156882611527565b602082019050919050565b6000602082019050818103600083015261158c81611550565b9050919050565b60006060820190506115a86000830186610bb6565b6115b56020830185610bb6565b6115c26040830184610ba7565b949350505050565b7f446f6e6174696f6e20616d6f756e74206d75737420626520677265617465722060008201527f7468616e207a65726f0000000000000000000000000000000000000000000000602082015250565b6000611626602983610af0565b9150611631826115ca565b604082019050919050565b6000602082019050818103600083015261165581611619565b9050919050565b7f43616d706169676e20646561646c696e65206861732070617373656400000000600082015250565b6000611692601c83610af0565b915061169d8261165c565b602082019050919050565b600060208201905081810360008301526116c181611685565b9050919050565b60006060820190506116dd6000830186610bb6565b6116ea6020830185610ba7565b6116f76040830184610bb6565b94935050505056fea26469706673582212209989e7d3d54d357df1a99b8e00343beb3336ebadd65c3dde4921bc8ae897be9764736f6c63430008180033",
  "linkReferences": {},
  "deployedLinkReferences": {}
}